{
  "contractName": "MindGames",
  "abi": [
    {
      "inputs": [
        {
          "internalType": "address",
          "name": "_tokenAddr",
          "type": "address"
        }
      ],
      "stateMutability": "nonpayable",
      "type": "constructor"
    },
    {
      "inputs": [
        {
          "internalType": "uint256",
          "name": "",
          "type": "uint256"
        }
      ],
      "name": "allCrypto",
      "outputs": [
        {
          "internalType": "string",
          "name": "",
          "type": "string"
        }
      ],
      "stateMutability": "view",
      "type": "function",
      "constant": true
    },
    {
      "inputs": [],
      "name": "numOfContests",
      "outputs": [
        {
          "internalType": "uint256",
          "name": "",
          "type": "uint256"
        }
      ],
      "stateMutability": "view",
      "type": "function",
      "constant": true
    },
    {
      "inputs": [],
      "name": "numOfOrders",
      "outputs": [
        {
          "internalType": "uint256",
          "name": "",
          "type": "uint256"
        }
      ],
      "stateMutability": "view",
      "type": "function",
      "constant": true
    },
    {
      "inputs": [],
      "name": "numOfUsers",
      "outputs": [
        {
          "internalType": "uint256",
          "name": "",
          "type": "uint256"
        }
      ],
      "stateMutability": "view",
      "type": "function",
      "constant": true
    },
    {
      "inputs": [],
      "name": "owner",
      "outputs": [
        {
          "internalType": "address payable",
          "name": "",
          "type": "address"
        }
      ],
      "stateMutability": "view",
      "type": "function",
      "constant": true
    },
    {
      "inputs": [
        {
          "internalType": "address",
          "name": "",
          "type": "address"
        }
      ],
      "name": "users",
      "outputs": [
        {
          "internalType": "uint256",
          "name": "",
          "type": "uint256"
        }
      ],
      "stateMutability": "view",
      "type": "function",
      "constant": true
    },
    {
      "inputs": [
        {
          "internalType": "address",
          "name": "_spender",
          "type": "address"
        }
      ],
      "name": "createNewUser",
      "outputs": [],
      "stateMutability": "nonpayable",
      "type": "function"
    },
    {
      "inputs": [
        {
          "internalType": "uint256",
          "name": "_entryFee",
          "type": "uint256"
        }
      ],
      "name": "createContest",
      "outputs": [
        {
          "internalType": "uint256",
          "name": "newContestIdCreated",
          "type": "uint256"
        }
      ],
      "stateMutability": "nonpayable",
      "type": "function"
    },
    {
      "inputs": [
        {
          "internalType": "uint256",
          "name": "_amt",
          "type": "uint256"
        },
        {
          "internalType": "uint256",
          "name": "_contestId",
          "type": "uint256"
        },
        {
          "internalType": "string[]",
          "name": "_crypto",
          "type": "string[]"
        }
      ],
      "name": "startOrder",
      "outputs": [],
      "stateMutability": "nonpayable",
      "type": "function"
    },
    {
      "inputs": [
        {
          "internalType": "uint256",
          "name": "_contestId",
          "type": "uint256"
        }
      ],
      "name": "startContest",
      "outputs": [],
      "stateMutability": "nonpayable",
      "type": "function"
    },
    {
      "inputs": [
        {
          "internalType": "uint256",
          "name": "_contestId",
          "type": "uint256"
        }
      ],
      "name": "endContest",
      "outputs": [],
      "stateMutability": "nonpayable",
      "type": "function"
    },
    {
      "inputs": [
        {
          "internalType": "uint256",
          "name": "_orderID",
          "type": "uint256"
        }
      ],
      "name": "viewOrder",
      "outputs": [
        {
          "internalType": "address",
          "name": "orderOwner",
          "type": "address"
        },
        {
          "internalType": "uint256",
          "name": "contestId",
          "type": "uint256"
        },
        {
          "internalType": "bool",
          "name": "isActive",
          "type": "bool"
        },
        {
          "internalType": "string[]",
          "name": "crypto",
          "type": "string[]"
        },
        {
          "internalType": "uint256[]",
          "name": "allocation",
          "type": "uint256[]"
        }
      ],
      "stateMutability": "view",
      "type": "function",
      "constant": true
    },
    {
      "inputs": [
        {
          "internalType": "uint256",
          "name": "_contestId",
          "type": "uint256"
        }
      ],
      "name": "viewContest",
      "outputs": [
        {
          "internalType": "bool",
          "name": "isActive",
          "type": "bool"
        },
        {
          "internalType": "bool",
          "name": "isStarted",
          "type": "bool"
        },
        {
          "internalType": "uint256",
          "name": "entryFee",
          "type": "uint256"
        },
        {
          "internalType": "uint256[]",
          "name": "startPrices",
          "type": "uint256[]"
        },
        {
          "internalType": "uint256[]",
          "name": "endPrices",
          "type": "uint256[]"
        },
        {
          "internalType": "uint256[]",
          "name": "listOfOrders",
          "type": "uint256[]"
        }
      ],
      "stateMutability": "view",
      "type": "function",
      "constant": true
    },
    {
      "inputs": [],
      "name": "getLatestPriceBtc",
      "outputs": [
        {
          "internalType": "uint256",
          "name": "",
          "type": "uint256"
        }
      ],
      "stateMutability": "view",
      "type": "function",
      "constant": true
    },
    {
      "inputs": [],
      "name": "getLatestPriceEth",
      "outputs": [
        {
          "internalType": "uint256",
          "name": "",
          "type": "uint256"
        }
      ],
      "stateMutability": "view",
      "type": "function",
      "constant": true
    },
    {
      "inputs": [],
      "name": "getLatestPriceMatic",
      "outputs": [
        {
          "internalType": "uint256",
          "name": "",
          "type": "uint256"
        }
      ],
      "stateMutability": "view",
      "type": "function",
      "constant": true
    },
    {
      "inputs": [],
      "name": "getLatestPriceLink",
      "outputs": [
        {
          "internalType": "uint256",
          "name": "",
          "type": "uint256"
        }
      ],
      "stateMutability": "view",
      "type": "function",
      "constant": true
    }
  ],
  "bytecode": "0x608060405260405180608001604052806040518060400160405280600381526020017f627463000000000000000000000000000000000000000000000000000000000081525081526020016040518060400160405280600381526020017f657468000000000000000000000000000000000000000000000000000000000081525081526020016040518060400160405280600581526020017f6d6174696300000000000000000000000000000000000000000000000000000081525081526020016040518060400160405280600481526020017f6c696e6b0000000000000000000000000000000000000000000000000000000081525081525060069060046200010b9291906200031f565b5060006007553480156200011e57600080fd5b506040516200368e3803806200368e83398181016040528101906200014491906200050e565b33600560006101000a81548173ffffffffffffffffffffffffffffffffffffffff021916908373ffffffffffffffffffffffffffffffffffffffff16021790555080600460006101000a81548173ffffffffffffffffffffffffffffffffffffffff021916908373ffffffffffffffffffffffffffffffffffffffff160217905550727a22900a3b98143368bd5906f8e17e9867581b6000806101000a81548173ffffffffffffffffffffffffffffffffffffffff021916908373ffffffffffffffffffffffffffffffffffffffff160217905550730715a7794a1dc8e42615f059dd6e406a6594651a600160006101000a81548173ffffffffffffffffffffffffffffffffffffffff021916908373ffffffffffffffffffffffffffffffffffffffff16021790555073d0d5e3db44de05e9f294bb0a3beeaf030de24ada600260006101000a81548173ffffffffffffffffffffffffffffffffffffffff021916908373ffffffffffffffffffffffffffffffffffffffff1602179055507312162c3e810393dec01362abf156d7ecf6159528600360006101000a81548173ffffffffffffffffffffffffffffffffffffffff021916908373ffffffffffffffffffffffffffffffffffffffff16021790555050620005a5565b82805482825590600052602060002090810192821562000373579160200282015b82811115620003725782518290805190602001906200036192919062000386565b509160200191906001019062000340565b5b50905062000382919062000417565b5090565b82805462000394906200056f565b90600052602060002090601f016020900481019282620003b8576000855562000404565b82601f10620003d357805160ff191683800117855562000404565b8280016001018555821562000404579182015b8281111562000403578251825591602001919060010190620003e6565b5b5090506200041391906200043f565b5090565b5b808211156200043b57600081816200043191906200045e565b5060010162000418565b5090565b5b808211156200045a57600081600090555060010162000440565b5090565b5080546200046c906200056f565b6000825580601f10620004805750620004a1565b601f016020900490600052602060002090810190620004a091906200043f565b5b50565b600080fd5b600073ffffffffffffffffffffffffffffffffffffffff82169050919050565b6000620004d682620004a9565b9050919050565b620004e881620004c9565b8114620004f457600080fd5b50565b6000815190506200050881620004dd565b92915050565b600060208284031215620005275762000526620004a4565b5b60006200053784828501620004f7565b91505092915050565b7f4e487b7100000000000000000000000000000000000000000000000000000000600052602260045260246000fd5b600060028204905060018216806200058857607f821691505b602082108114156200059f576200059e62000540565b5b50919050565b6130d980620005b56000396000f3fe608060405234801561001057600080fd5b506004361061010b5760003560e01c806385833b1c116100a2578063a87430ba11610071578063a87430ba146102b1578063afa984d0146102e1578063c7a13504146102fd578063c90800331461031b578063dcbc2d5c1461034b5761010b565b806385833b1c146102125780638ca0febf146102475780638da5cb5b14610277578063a3c1adac146102955761010b565b80633b79fdd9116100de5780633b79fdd91461018657806343f7bde5146101a457806359647dfb146101c25780637c38d663146101de5761010b565b8063147c47ed146101105780631ea59aa61461012e57806329dc66c01461014a5780633180be0814610168575b600080fd5b610118610369565b6040516101259190611f9c565b60405180910390f35b61014860048036038101906101439190611ff7565b61036f565b005b610152610bf3565b60405161015f9190611f9c565b60405180910390f35b610170610bf9565b60405161017d9190611f9c565b60405180910390f35b61018e610d6e565b60405161019b9190611f9c565b60405180910390f35b6101ac610e1d565b6040516101b99190611f9c565b60405180910390f35b6101dc60048036038101906101d79190612082565b610e23565b005b6101f860048036038101906101f39190611ff7565b610fa8565b6040516102099594939291906122f2565b60405180910390f35b61022c60048036038101906102279190611ff7565b611186565b60405161023e96959493929190612353565b60405180910390f35b610261600480360381019061025c9190611ff7565b61133c565b60405161026e9190611f9c565b60405180910390f35b61027f61143e565b60405161028c91906123ea565b60405180910390f35b6102af60048036038101906102aa9190612620565b611464565b005b6102cb60048036038101906102c69190612082565b611805565b6040516102d89190611f9c565b60405180910390f35b6102fb60048036038101906102f69190611ff7565b61181d565b005b610305611a88565b6040516103129190611f9c565b60405180910390f35b61033560048036038101906103309190611ff7565b611b37565b60405161034291906126d9565b60405180910390f35b610353611be3565b6040516103609190611f9c565b60405180910390f35b60095481565b600560009054906101000a900473ffffffffffffffffffffffffffffffffffffffff1673ffffffffffffffffffffffffffffffffffffffff163373ffffffffffffffffffffffffffffffffffffffff16146103ff576040517f08c379a00000000000000000000000000000000000000000000000000000000081526004016103f69061276d565b60405180910390fd5b6001600c600083815260200190815260200160002060000160016101000a81548160ff02191690831515021790555060005b60068054905081101561053c57600c60008381526020019081526020016000206002016105036006838154811061046b5761046a61278d565b5b906000526020600020018054610480906127eb565b80601f01602080910402602001604051908101604052809291908181526020018280546104ac906127eb565b80156104f95780601f106104ce576101008083540402835291602001916104f9565b820191906000526020600020905b8154815290600101906020018083116104dc57829003601f168201915b5050505050611c90565b908060018154018082558091505060019003906000526020600020016000909190919091505580806105349061284c565b915050610431565b60008091505b600c600084815260200190815260200160002060040180549050821015610bee57600090505b600a6000600c600086815260200190815260200160002060040184815481106105945761059361278d565b5b9060005260206000200154815260200190815260200160002060030180549050811015610bdb57600081141561074157600a6000600c600086815260200190815260200160002060040184815481106105f0576105ef61278d565b5b90600052602060002001548152602001908152602001600020600401610701600a6000600c6000888152602001908152602001600020600401868154811061063b5761063a61278d565b5b9060005260206000200154815260200190815260200160002060030183815481106106695761066861278d565b5b90600052602060002001805461067e906127eb565b80601f01602080910402602001604051908101604052809291908181526020018280546106aa906127eb565b80156106f75780601f106106cc576101008083540402835291602001916106f7565b820191906000526020600020905b8154815290600101906020018083116106da57829003601f168201915b5050505050611c90565b69043c33c193756480000061071691906128c4565b9080600181540180825580915050600190039060005260206000200160009091909190915055610bc8565b60018114156108c757600a6000600c600086815260200190815260200160002060040184815481106107765761077561278d565b5b90600052602060002001548152602001908152602001600020600401610887600a6000600c600088815260200190815260200160002060040186815481106107c1576107c061278d565b5b9060005260206000200154815260200190815260200160002060030183815481106107ef576107ee61278d565b5b906000526020600020018054610804906127eb565b80601f0160208091040260200160405190810160405280929190818152602001828054610830906127eb565b801561087d5780601f106108525761010080835404028352916020019161087d565b820191906000526020600020905b81548152906001019060200180831161086057829003601f168201915b5050505050611c90565b6903b4ad496106b7f0000061089c91906128c4565b9080600181540180825580915050600190039060005260206000200160009091909190915055610bc7565b6002811415610a4d57600a6000600c600086815260200190815260200160002060040184815481106108fc576108fb61278d565b5b90600052602060002001548152602001908152602001600020600401610a0d600a6000600c600088815260200190815260200160002060040186815481106109475761094661278d565b5b9060005260206000200154815260200190815260200160002060030183815481106109755761097461278d565b5b90600052602060002001805461098a906127eb565b80601f01602080910402602001604051908101604052809291908181526020018280546109b6906127eb565b8015610a035780601f106109d857610100808354040283529160200191610a03565b820191906000526020600020905b8154815290600101906020018083116109e657829003601f168201915b5050505050611c90565b69032d26d12e980b600000610a2291906128c4565b9080600181540180825580915050600190039060005260206000200160009091909190915055610bc6565b600a6000600c60008681526020019081526020016000206004018481548110610a7957610a7861278d565b5b90600052602060002001548152602001908152602001600020600401610b8a600a6000600c60008881526020019081526020016000206004018681548110610ac457610ac361278d565b5b906000526020600020015481526020019081526020016000206003018381548110610af257610af161278d565b5b906000526020600020018054610b07906127eb565b80601f0160208091040260200160405190810160405280929190818152602001828054610b33906127eb565b8015610b805780601f10610b5557610100808354040283529160200191610b80565b820191906000526020600020905b815481529060010190602001808311610b6357829003601f168201915b5050505050611c90565b69021e19e0c9bab2400000610b9f91906128c4565b90806001815401808255809150506001900390600052602060002001600090919091909150555b5b5b8080610bd39061284c565b915050610568565b8180610be69061284c565b925050610542565b505050565b600b5481565b600080600080600080600360009054906101000a900473ffffffffffffffffffffffffffffffffffffffff1673ffffffffffffffffffffffffffffffffffffffff1663feaf968c6040518163ffffffff1660e01b815260040160a060405180830381865afa158015610c6f573d6000803e3d6000fd5b505050506040513d601f19601f82011682018060405250810190610c939190612982565b945094509450945094506000806000806000600260009054906101000a900473ffffffffffffffffffffffffffffffffffffffff1673ffffffffffffffffffffffffffffffffffffffff1663feaf968c6040518163ffffffff1660e01b815260040160a060405180830381865afa158015610d12573d6000803e3d6000fd5b505050506040513d601f19601f82011682018060405250810190610d369190612982565b94509450945094509450670de0b6b3a7640000848a610d5591906129fd565b610d5f9190612b14565b9a505050505050505050505090565b600080600080600080600160009054906101000a900473ffffffffffffffffffffffffffffffffffffffff1673ffffffffffffffffffffffffffffffffffffffff1663feaf968c6040518163ffffffff1660e01b815260040160a060405180830381865afa158015610de4573d6000803e3d6000fd5b505050506040513d601f19601f82011682018060405250810190610e089190612982565b94509450945094509450839550505050505090565b60075481565b6000600860003373ffffffffffffffffffffffffffffffffffffffff1673ffffffffffffffffffffffffffffffffffffffff1681526020019081526020016000205414610ea5576040517f08c379a0000000000000000000000000000000000000000000000000000000008152600401610e9c90612bca565b60405180910390fd5b60076000815480929190610eb89061284c565b9190505550600754600860003373ffffffffffffffffffffffffffffffffffffffff1673ffffffffffffffffffffffffffffffffffffffff16815260200190815260200160002081905550600460009054906101000a900473ffffffffffffffffffffffffffffffffffffffff1673ffffffffffffffffffffffffffffffffffffffff1663095ea7b38260006040518363ffffffff1660e01b8152600401610f61929190612c2f565b6020604051808303816000875af1158015610f80573d6000803e3d6000fd5b505050506040513d601f19601f82011682018060405250810190610fa49190612c84565b5050565b6000806000606080600a600087815260200190815260200160002060000160009054906101000a900473ffffffffffffffffffffffffffffffffffffffff16600a600088815260200190815260200160002060010154600a600089815260200190815260200160002060020160009054906101000a900460ff16600a60008a8152602001908152602001600020600301600a60008b815260200190815260200160002060040181805480602002602001604051908101604052809291908181526020016000905b8282101561111b57838290600052602060002001805461108e906127eb565b80601f01602080910402602001604051908101604052809291908181526020018280546110ba906127eb565b80156111075780601f106110dc57610100808354040283529160200191611107565b820191906000526020600020905b8154815290600101906020018083116110ea57829003601f168201915b50505050508152602001906001019061106f565b5050505091508080548060200260200160405190810160405280929190818152602001828054801561116c57602002820191906000526020600020905b815481526020019060010190808311611158575b505050505090509450945094509450945091939590929450565b60008060006060806060600c600088815260200190815260200160002060000160009054906101000a900460ff16600c600089815260200190815260200160002060000160019054906101000a900460ff16600c60008a815260200190815260200160002060010154600c60008b8152602001908152602001600020600201600c60008c8152602001908152602001600020600301600c60008d81526020019081526020016000206004018280548060200260200160405190810160405280929190818152602001828054801561127c57602002820191906000526020600020905b815481526020019060010190808311611268575b50505050509250818054806020026020016040519081016040528092919081815260200182805480156112ce57602002820191906000526020600020905b8154815260200190600101908083116112ba575b505050505091508080548060200260200160405190810160405280929190818152602001828054801561132057602002820191906000526020600020905b81548152602001906001019080831161130c575b5050505050905095509550955095509550955091939550919395565b6000600560009054906101000a900473ffffffffffffffffffffffffffffffffffffffff1673ffffffffffffffffffffffffffffffffffffffff163373ffffffffffffffffffffffffffffffffffffffff16146113ce576040517f08c379a00000000000000000000000000000000000000000000000000000000081526004016113c59061276d565b60405180910390fd5b600b60008154809291906113e19061284c565b919050555081600c6000600b548152602001908152602001600020600101819055506001600c6000600b54815260200190815260200160002060000160006101000a81548160ff021916908315150217905550600b549050919050565b600560009054906101000a900473ffffffffffffffffffffffffffffffffffffffff1681565b6000600860003373ffffffffffffffffffffffffffffffffffffffff1673ffffffffffffffffffffffffffffffffffffffff1681526020019081526020016000205414156114e7576040517f08c379a00000000000000000000000000000000000000000000000000000000081526004016114de90612cfd565b60405180910390fd5b600960008154809291906114fa9061284c565b9190505550600c6000838152602001908152602001600020600101548314611557576040517f08c379a000000000000000000000000000000000000000000000000000000000815260040161154e90612d8f565b60405180910390fd5b600060648461156691906128c4565b90506000605f826115779190612daf565b9050600460009054906101000a900473ffffffffffffffffffffffffffffffffffffffff1673ffffffffffffffffffffffffffffffffffffffff166323b872dd3330846040518463ffffffff1660e01b81526004016115d893929190612e09565b6020604051808303816000875af11580156115f7573d6000803e3d6000fd5b505050506040513d601f19601f8201168201806040525081019061161b9190612c84565b50600460009054906101000a900473ffffffffffffffffffffffffffffffffffffffff1673ffffffffffffffffffffffffffffffffffffffff166323b872dd33600560009054906101000a900473ffffffffffffffffffffffffffffffffffffffff1660058661168b9190612daf565b6040518463ffffffff1660e01b81526004016116a993929190612e95565b6020604051808303816000875af11580156116c8573d6000803e3d6000fd5b505050506040513d601f19601f820116820180604052508101906116ec9190612c84565b5033600a6000600954815260200190815260200160002060000160006101000a81548173ffffffffffffffffffffffffffffffffffffffff021916908373ffffffffffffffffffffffffffffffffffffffff16021790555083600a60006009548152602001908152602001600020600101819055506001600a6000600954815260200190815260200160002060020160006101000a81548160ff02191690831515021790555082600a6000600954815260200190815260200160002060030190805190602001906117be929190611e1c565b50600c600085815260200190815260200160002060040160095490806001815401808255809150506001900390600052602060002001600090919091909150555050505050565b60086020528060005260406000206000915090505481565b600560009054906101000a900473ffffffffffffffffffffffffffffffffffffffff1673ffffffffffffffffffffffffffffffffffffffff163373ffffffffffffffffffffffffffffffffffffffff16146118ad576040517f08c379a00000000000000000000000000000000000000000000000000000000081526004016118a49061276d565b60405180910390fd5b60005b6006805490508110156119bb57600c6000838152602001908152602001600020600301611982600683815481106118ea576118e961278d565b5b9060005260206000200180546118ff906127eb565b80601f016020809104026020016040519081016040528092919081815260200182805461192b906127eb565b80156119785780601f1061194d57610100808354040283529160200191611978565b820191906000526020600020905b81548152906001019060200180831161195b57829003601f168201915b5050505050611c90565b908060018154018082558091505060019003906000526020600020016000909190919091505580806119b39061284c565b9150506118b0565b600090505b600c600083815260200190815260200160002060040180549050811015611a55576000600a6000600c60008681526020019081526020016000206004018481548110611a0f57611a0e61278d565b5b9060005260206000200154815260200190815260200160002060020160006101000a81548160ff0219169083151502179055508080611a4d9061284c565b9150506119c0565b6000600c600084815260200190815260200160002060000160006101000a81548160ff0219169083151502179055505050565b600080600080600080600260009054906101000a900473ffffffffffffffffffffffffffffffffffffffff1673ffffffffffffffffffffffffffffffffffffffff1663feaf968c6040518163ffffffff1660e01b815260040160a060405180830381865afa158015611afe573d6000803e3d6000fd5b505050506040513d601f19601f82011682018060405250810190611b229190612982565b94509450945094509450839550505050505090565b60068181548110611b4757600080fd5b906000526020600020016000915090508054611b62906127eb565b80601f0160208091040260200160405190810160405280929190818152602001828054611b8e906127eb565b8015611bdb5780601f10611bb057610100808354040283529160200191611bdb565b820191906000526020600020905b815481529060010190602001808311611bbe57829003601f168201915b505050505081565b60008060008060008060008054906101000a900473ffffffffffffffffffffffffffffffffffffffff1673ffffffffffffffffffffffffffffffffffffffff1663feaf968c6040518163ffffffff1660e01b815260040160a060405180830381865afa158015611c57573d6000803e3d6000fd5b505050506040513d601f19601f82011682018060405250810190611c7b9190612982565b94509450945094509450839550505050505090565b6000604051602001611ca190612f23565b6040516020818303038152906040528051906020012082604051602001611cc89190612f69565b604051602081830303815290604052805190602001201415611cf357611cec611be3565b9050611e17565b604051602001611d0290612fcc565b6040516020818303038152906040528051906020012082604051602001611d299190612f69565b604051602081830303815290604052805190602001201415611d5457611d4d610d6e565b9050611e17565b604051602001611d639061302d565b6040516020818303038152906040528051906020012082604051602001611d8a9190612f69565b604051602081830303815290604052805190602001201415611db557611dae611a88565b9050611e17565b604051602001611dc49061308e565b6040516020818303038152906040528051906020012082604051602001611deb9190612f69565b604051602081830303815290604052805190602001201415611e1657611e0f610bf9565b9050611e17565b5b919050565b828054828255906000526020600020908101928215611e6b579160200282015b82811115611e6a578251829080519060200190611e5a929190611e7c565b5091602001919060010190611e3c565b5b509050611e789190611f02565b5090565b828054611e88906127eb565b90600052602060002090601f016020900481019282611eaa5760008555611ef1565b82601f10611ec357805160ff1916838001178555611ef1565b82800160010185558215611ef1579182015b82811115611ef0578251825591602001919060010190611ed5565b5b509050611efe9190611f26565b5090565b5b80821115611f225760008181611f199190611f43565b50600101611f03565b5090565b5b80821115611f3f576000816000905550600101611f27565b5090565b508054611f4f906127eb565b6000825580601f10611f615750611f80565b601f016020900490600052602060002090810190611f7f9190611f26565b5b50565b6000819050919050565b611f9681611f83565b82525050565b6000602082019050611fb16000830184611f8d565b92915050565b6000604051905090565b600080fd5b600080fd5b611fd481611f83565b8114611fdf57600080fd5b50565b600081359050611ff181611fcb565b92915050565b60006020828403121561200d5761200c611fc1565b5b600061201b84828501611fe2565b91505092915050565b600073ffffffffffffffffffffffffffffffffffffffff82169050919050565b600061204f82612024565b9050919050565b61205f81612044565b811461206a57600080fd5b50565b60008135905061207c81612056565b92915050565b60006020828403121561209857612097611fc1565b5b60006120a68482850161206d565b91505092915050565b6120b881612044565b82525050565b60008115159050919050565b6120d3816120be565b82525050565b600081519050919050565b600082825260208201905092915050565b6000819050602082019050919050565b600081519050919050565b600082825260208201905092915050565b60005b8381101561213f578082015181840152602081019050612124565b8381111561214e576000848401525b50505050565b6000601f19601f8301169050919050565b600061217082612105565b61217a8185612110565b935061218a818560208601612121565b61219381612154565b840191505092915050565b60006121aa8383612165565b905092915050565b6000602082019050919050565b60006121ca826120d9565b6121d481856120e4565b9350836020820285016121e6856120f5565b8060005b858110156122225784840389528151612203858261219e565b945061220e836121b2565b925060208a019950506001810190506121ea565b50829750879550505050505092915050565b600081519050919050565b600082825260208201905092915050565b6000819050602082019050919050565b61226981611f83565b82525050565b600061227b8383612260565b60208301905092915050565b6000602082019050919050565b600061229f82612234565b6122a9818561223f565b93506122b483612250565b8060005b838110156122e55781516122cc888261226f565b97506122d783612287565b9250506001810190506122b8565b5085935050505092915050565b600060a08201905061230760008301886120af565b6123146020830187611f8d565b61232160408301866120ca565b818103606083015261233381856121bf565b905081810360808301526123478184612294565b90509695505050505050565b600060c08201905061236860008301896120ca565b61237560208301886120ca565b6123826040830187611f8d565b81810360608301526123948186612294565b905081810360808301526123a88185612294565b905081810360a08301526123bc8184612294565b9050979650505050505050565b60006123d482612024565b9050919050565b6123e4816123c9565b82525050565b60006020820190506123ff60008301846123db565b92915050565b600080fd5b7f4e487b7100000000000000000000000000000000000000000000000000000000600052604160045260246000fd5b61244282612154565b810181811067ffffffffffffffff821117156124615761246061240a565b5b80604052505050565b6000612474611fb7565b90506124808282612439565b919050565b600067ffffffffffffffff8211156124a05761249f61240a565b5b602082029050602081019050919050565b600080fd5b600080fd5b600067ffffffffffffffff8211156124d6576124d561240a565b5b6124df82612154565b9050602081019050919050565b82818337600083830152505050565b600061250e612509846124bb565b61246a565b90508281526020810184848401111561252a576125296124b6565b5b6125358482856124ec565b509392505050565b600082601f83011261255257612551612405565b5b81356125628482602086016124fb565b91505092915050565b600061257e61257984612485565b61246a565b905080838252602082019050602084028301858111156125a1576125a06124b1565b5b835b818110156125e857803567ffffffffffffffff8111156125c6576125c5612405565b5b8086016125d3898261253d565b855260208501945050506020810190506125a3565b5050509392505050565b600082601f83011261260757612606612405565b5b813561261784826020860161256b565b91505092915050565b60008060006060848603121561263957612638611fc1565b5b600061264786828701611fe2565b935050602061265886828701611fe2565b925050604084013567ffffffffffffffff81111561267957612678611fc6565b5b612685868287016125f2565b9150509250925092565b600082825260208201905092915050565b60006126ab82612105565b6126b5818561268f565b93506126c5818560208601612121565b6126ce81612154565b840191505092915050565b600060208201905081810360008301526126f381846126a0565b905092915050565b7f4f6e6c79206f776e65722063616e2063616c6c20746869732066756e6374696f60008201527f6e2e000000000000000000000000000000000000000000000000000000000000602082015250565b600061275760228361268f565b9150612762826126fb565b604082019050919050565b600060208201905081810360008301526127868161274a565b9050919050565b7f4e487b7100000000000000000000000000000000000000000000000000000000600052603260045260246000fd5b7f4e487b7100000000000000000000000000000000000000000000000000000000600052602260045260246000fd5b6000600282049050600182168061280357607f821691505b60208210811415612817576128166127bc565b5b50919050565b7f4e487b7100000000000000000000000000000000000000000000000000000000600052601160045260246000fd5b600061285782611f83565b91507fffffffffffffffffffffffffffffffffffffffffffffffffffffffffffffffff82141561288a5761288961281d565b5b600182019050919050565b7f4e487b7100000000000000000000000000000000000000000000000000000000600052601260045260246000fd5b60006128cf82611f83565b91506128da83611f83565b9250826128ea576128e9612895565b5b828204905092915050565b600069ffffffffffffffffffff82169050919050565b612914816128f5565b811461291f57600080fd5b50565b6000815190506129318161290b565b92915050565b6000819050919050565b61294a81612937565b811461295557600080fd5b50565b60008151905061296781612941565b92915050565b60008151905061297c81611fcb565b92915050565b600080600080600060a0868803121561299e5761299d611fc1565b5b60006129ac88828901612922565b95505060206129bd88828901612958565b94505060406129ce8882890161296d565b93505060606129df8882890161296d565b92505060806129f088828901612922565b9150509295509295909350565b6000612a0882612937565b9150612a1383612937565b9250827f7fffffffffffffffffffffffffffffffffffffffffffffffffffffffffffffff0482116000841360008413161615612a5257612a5161281d565b5b817f80000000000000000000000000000000000000000000000000000000000000000583126000841260008413161615612a8f57612a8e61281d565b5b827f80000000000000000000000000000000000000000000000000000000000000000582126000841360008412161615612acc57612acb61281d565b5b827f7fffffffffffffffffffffffffffffffffffffffffffffffffffffffffffffff0582126000841260008412161615612b0957612b0861281d565b5b828202905092915050565b6000612b1f82612937565b9150612b2a83612937565b925082612b3a57612b39612895565b5b600160000383147f800000000000000000000000000000000000000000000000000000000000000083141615612b7357612b7261281d565b5b828205905092915050565b7f5573657220616c72656164792065786973747300000000000000000000000000600082015250565b6000612bb460138361268f565b9150612bbf82612b7e565b602082019050919050565b60006020820190508181036000830152612be381612ba7565b9050919050565b6000819050919050565b6000819050919050565b6000612c19612c14612c0f84612bea565b612bf4565b611f83565b9050919050565b612c2981612bfe565b82525050565b6000604082019050612c4460008301856120af565b612c516020830184612c20565b9392505050565b612c61816120be565b8114612c6c57600080fd5b50565b600081519050612c7e81612c58565b92915050565b600060208284031215612c9a57612c99611fc1565b5b6000612ca884828501612c6f565b91505092915050565b7f5573657220646f6573206e6f7420657869737400000000000000000000000000600082015250565b6000612ce760138361268f565b9150612cf282612cb1565b602082019050919050565b60006020820190508181036000830152612d1681612cda565b9050919050565b7f506c6561736520696e70757420746865207269676874206e756d626572206f6660008201527f204d475420746f6b656e73000000000000000000000000000000000000000000602082015250565b6000612d79602b8361268f565b9150612d8482612d1d565b604082019050919050565b60006020820190508181036000830152612da881612d6c565b9050919050565b6000612dba82611f83565b9150612dc583611f83565b9250817fffffffffffffffffffffffffffffffffffffffffffffffffffffffffffffffff0483118215151615612dfe57612dfd61281d565b5b828202905092915050565b6000606082019050612e1e60008301866120af565b612e2b60208301856120af565b612e386040830184611f8d565b949350505050565b6000612e5b612e56612e5184612024565b612bf4565b612024565b9050919050565b6000612e6d82612e40565b9050919050565b6000612e7f82612e62565b9050919050565b612e8f81612e74565b82525050565b6000606082019050612eaa60008301866120af565b612eb76020830185612e86565b612ec46040830184611f8d565b949350505050565b600081905092915050565b7f6274630000000000000000000000000000000000000000000000000000000000600082015250565b6000612f0d600383612ecc565b9150612f1882612ed7565b600382019050919050565b6000612f2e82612f00565b9150819050919050565b6000612f4382612105565b612f4d8185612ecc565b9350612f5d818560208601612121565b80840191505092915050565b6000612f758284612f38565b915081905092915050565b7f6574680000000000000000000000000000000000000000000000000000000000600082015250565b6000612fb6600383612ecc565b9150612fc182612f80565b600382019050919050565b6000612fd782612fa9565b9150819050919050565b7f6d61746963000000000000000000000000000000000000000000000000000000600082015250565b6000613017600583612ecc565b915061302282612fe1565b600582019050919050565b60006130388261300a565b9150819050919050565b7f6c696e6b00000000000000000000000000000000000000000000000000000000600082015250565b6000613078600483612ecc565b915061308382613042565b600482019050919050565b60006130998261306b565b915081905091905056fea26469706673582212202650af809b8e3b3a3bf1435a348d471d387a7066e8e4c44458a9353d1269e3d264736f6c634300080a0033",
  "immutableReferences": {},
  "source": "// SPDX-License-Identifier: MIT\npragma solidity ^0.8.10;\n\nimport \"@chainlink/contracts/src/v0.8/interfaces/AggregatorV3Interface.sol\";\nimport \"@openzeppelin/contracts/token/ERC20/IERC20.sol\";\n\ncontract MindGames {\n\n  AggregatorV3Interface internal btcPriceFeed;\n  AggregatorV3Interface internal ethPriceFeed;\n  AggregatorV3Interface internal maticPriceFeed;\n  AggregatorV3Interface internal linkPriceFeed;\n\n  //Comment below lines for polygon Mumbai testnet\n  // AggregatorV3Interface internal bnbPriceFeed;\n  // AggregatorV3Interface internal xrpPriceFeed;\n  // AggregatorV3Interface internal adaPriceFeed;\n  // AggregatorV3Interface internal solPriceFeed;\n  // AggregatorV3Interface internal lunaPriceFeed;\n  // AggregatorV3Interface internal dotPriceFeed;\n  // AggregatorV3Interface internal dogePriceFeed;\n  // AggregatorV3Interface internal ltcPriceFeed;\n  // AggregatorV3Interface internal trxPriceFeed;\n  // AggregatorV3Interface internal bchPriceFeed;\n  // AggregatorV3Interface internal algoPriceFeed;\n  // AggregatorV3Interface internal xlmPriceFeed;\n  // AggregatorV3Interface internal zecPriceFeed;\n  // AggregatorV3Interface internal dashPriceFeed;\n\n\n\n  IERC20 token;\n\n  address payable public owner; //to store the owner's address\n  \n  //Comment below line for mainnet\n  string[] public allCrypto = [\"btc\", \"eth\", \"matic\", \"link\"];\n\n  //Comment below line for testnet\n  // string[] public allCrypto = [\"btc\", \"eth\", \"matic\", \"link\", \"bnb\", \"xrp\", \"ada\", \"sol\", \"luna\", \"dot\", \"doge\", \"ltc\", \"trx\", \"bch\", \"algo\", \"xlm\", \"zec\", \"dash\"];\n\n  struct order { // to store the details of every order\n    address orderOwner;\n    uint contestId;\n    bool isActive;\n    string[] crypto;\n    uint[] allocation;\n  }\n\n  struct contest {\n    bool isActive;\n    bool isStarted;\n    uint entryFee;\n    uint[] startPrices;\n    uint[] endPrices;\n    uint[] listOfOrders;\n  }\n\n  uint public numOfUsers = 0;       // Total number of users in the smart contract\n  mapping (address => uint) public users; // users' respective addresses\n\n  uint public numOfOrders; //Total number of orders\n  mapping (uint => order) orders; //mapping for the ordernumber of each order: not set to public due to viewOrder fuction\n  \n  uint public numOfContests; //Total number of contests\n  mapping (uint => contest) contests; //mapping for the ordernumber of each order: not set to public due to viewOrder fuction\n  \n  constructor(address _tokenAddr) {\n    owner = payable(msg.sender); //setting the owner of the contract\n    token = IERC20(_tokenAddr);\n\n    //Comment below lines for mainnet\n    btcPriceFeed = AggregatorV3Interface(0x007A22900a3B98143368Bd5906f8E17e9867581b);\n    ethPriceFeed = AggregatorV3Interface(0x0715A7794a1dc8e42615F059dD6e406A6594651A);\n    maticPriceFeed = AggregatorV3Interface(0xd0D5e3DB44DE05E9F294BB0a3bEEaF030DE24Ada);\n    linkPriceFeed = AggregatorV3Interface(0x12162c3E810393dEC01362aBf156D7ecf6159528);\n\n    //Comment below lines for testnet\n    // btcPriceFeed = AggregatorV3Interface(0xc907E116054Ad103354f2D350FD2514433D57F6f);\n    // ethPriceFeed = AggregatorV3Interface(0xF9680D99D6C9589e2a93a78A04A279e509205945);\n    // maticPriceFeed = AggregatorV3Interface(0xAB594600376Ec9fD91F8e885dADF0CE036862dE0  );\n    // linkPriceFeed = AggregatorV3Interface(0xd9FFdb71EbE7496cC440152d43986Aae0AB76665);\n    // bnbPriceFeed = AggregatorV3Interface(0x82a6c4AF830caa6c97bb504425f6A66165C2c26e);\n    // xrpPriceFeed = AggregatorV3Interface(0x785ba89291f676b5386652eB12b30cF361020694);\n    // adaPriceFeed = AggregatorV3Interface(0x882554df528115a743c4537828DA8D5B58e52544);\n    // solPriceFeed = AggregatorV3Interface(0x10C8264C0935b3B9870013e057f330Ff3e9C56dC);\n    // lunaPriceFeed = AggregatorV3Interface(0x1248573D9B62AC86a3ca02aBC6Abe6d403Cd1034);\n    // dotPriceFeed = AggregatorV3Interface(0xacb51F1a83922632ca02B25a8164c10748001BdE);\n    // dogePriceFeed = AggregatorV3Interface(0xbaf9327b6564454F4a3364C33eFeEf032b4b4444);\n    // ltcPriceFeed = AggregatorV3Interface(0xEB99F173cf7d9a6dC4D889C2Ad7103e8383b6Efa);\n    // trxPriceFeed = AggregatorV3Interface(0x307cCF7cBD17b69A487b9C3dbe483931Cf3E1833);\n    // bchPriceFeed = AggregatorV3Interface(0x327d9822e9932996f55b39F557AEC838313da8b7);\n    // algoPriceFeed = AggregatorV3Interface(0x03Bc6D9EFed65708D35fDaEfb25E87631a0a3437);\n    // xlmPriceFeed = AggregatorV3Interface(0x692AE5510cA9070095A496dbcFBCDA99D4024Cd9);\n    // zecPriceFeed = AggregatorV3Interface(0xBC08c639e579a391C4228F20d0C29d0690092DF0);\n    // dashPriceFeed = AggregatorV3Interface(0xD94427eDee70E4991b4b8DdCc848f2B58ED01C0b);\n  }\n\n  modifier checkNewUser() {   //checking if the new user has already registered before\n    if(users[msg.sender] != 0) {\n      revert(\"User already exists\");\n    }     \n    _;\n  }\n\n  modifier checkExistingUser() {      //Add check for existing user\n    if(users[msg.sender] == 0) {\n      revert(\"User does not exist\");\n    }     \n    _;\n  }\n\n  modifier onlyOwner() {\n        require(\n            msg.sender == owner,\n            \"Only owner can call this function.\"\n        );\n        _;\n    }\n\n  function createNewUser(address _spender) public checkNewUser(){ // to register new user in smart contract\n    numOfUsers++;\n    users[msg.sender] = numOfUsers;\n    token.approve(_spender, 0);\n  }\n\n  function createContest(uint _entryFee) public onlyOwner returns (uint newContestIdCreated){\n    numOfContests++;\n    contests[numOfContests].entryFee = _entryFee;\n    contests[numOfContests].isActive = true;\n    return numOfContests;\n  }\n\n\n  function startOrder(uint _amt, uint _contestId, string[] memory _crypto) public checkExistingUser(){  //Creating a new order\n    numOfOrders++;\n    require(_amt==contests[_contestId].entryFee,\"Please input the right number of MGT tokens\");\n    uint percent = _amt/100;\n    uint entryFee = percent*95;\n    token.transferFrom(msg.sender, address(this), entryFee);\n    token.transferFrom(msg.sender, owner, percent*5);\n    orders[numOfOrders].orderOwner = msg.sender;\n    orders[numOfOrders].contestId = _contestId;\n    orders[numOfOrders].isActive = true;\n    orders[numOfOrders].crypto = _crypto;\n    contests[_contestId].listOfOrders.push(numOfOrders);\n  }\n\n    function startContest(uint _contestId) public onlyOwner(){\n        contests[_contestId].isStarted = true;\n        uint i;\n        for(i=0;i<allCrypto.length;i++) {\n            contests[_contestId].startPrices.push(getLatestPrice(allCrypto[i]));\n        }\n\n        uint j;\n        for (i=0;i<contests[_contestId].listOfOrders.length;i++){\n          for(j=0;j<orders[contests[_contestId].listOfOrders[i]].crypto.length;j++){\n            if(j==0){\n              orders[contests[_contestId].listOfOrders[i]].allocation.push((20000*10**18)/getLatestPrice(orders[contests[_contestId].listOfOrders[i]].crypto[j]));\n            }\n            else if (j==1){\n              orders[contests[_contestId].listOfOrders[i]].allocation.push((17500*10**18)/getLatestPrice(orders[contests[_contestId].listOfOrders[i]].crypto[j]));\n            }\n            else if (j==2){\n              orders[contests[_contestId].listOfOrders[i]].allocation.push((15000*10**18)/getLatestPrice(orders[contests[_contestId].listOfOrders[i]].crypto[j]));\n            }\n            else{\n              orders[contests[_contestId].listOfOrders[i]].allocation.push((10000*10**18)/getLatestPrice(orders[contests[_contestId].listOfOrders[i]].crypto[j]));\n            }\n          }\n        }\n    }\n\n    function endContest(uint _contestId) public onlyOwner(){   \n        uint i;\n        for(i=0;i<allCrypto.length;i++) {\n            contests[_contestId].endPrices.push(getLatestPrice(allCrypto[i]));\n        }\n\n        for(i=0;i<contests[_contestId].listOfOrders.length;i++){\n          orders[contests[_contestId].listOfOrders[i]].isActive = false;\n        }\n        contests[_contestId].isActive = false;\n    }\n\n  function viewOrder(uint _orderID) public view returns(address orderOwner, uint contestId, bool isActive, string[] memory crypto, uint[] memory allocation) {  // Used to view existing orders\n    return (orders[_orderID].orderOwner, orders[_orderID].contestId, orders[_orderID].isActive, orders[_orderID].crypto, orders[_orderID].allocation);\n  }\n\n  function viewContest(uint _contestId) public view returns(bool isActive, bool isStarted, uint entryFee, uint[] memory startPrices, uint[] memory endPrices, uint[] memory listOfOrders) {  // Used to view existing contests\n    return (contests[_contestId].isActive, contests[_contestId].isStarted, contests[_contestId].entryFee, contests[_contestId].startPrices, contests[_contestId].endPrices, contests[_contestId].listOfOrders);\n  }\n\n    /**\n     * Oracles for each price feed\n     */\n\n  function getLatestPriceBtc() public view returns (uint) {\n      (\n          uint80 roundID, \n          int price,\n          uint startedAt,\n          uint timeStamp,\n          uint80 answeredInRound\n      ) = btcPriceFeed.latestRoundData();\n      return uint(price);\n  }\n\n  function getLatestPriceEth() public view returns (uint) {\n      (\n          uint80 roundID, \n          int price,\n          uint startedAt,\n          uint timeStamp,\n          uint80 answeredInRound\n      ) = ethPriceFeed.latestRoundData();\n      return uint(price);\n  }\n\n  function getLatestPriceMatic() public view returns (uint) {\n      (\n          uint80 roundID, \n          int price,\n          uint startedAt,\n          uint timeStamp,\n          uint80 answeredInRound\n      ) = maticPriceFeed.latestRoundData();\n      return uint(price);\n  }\n\n  //Comment below lines for mainnet\n  function getLatestPriceLink() public view returns (uint) {\n      (\n          uint80 roundID, \n          int price,\n          uint startedAt,\n          uint timeStamp,\n          uint80 answeredInRound2\n      ) = linkPriceFeed.latestRoundData();\n      (\n          uint80 broundID, \n          int bprice,\n          uint bstartedAt,\n          uint btimeStamp,\n          uint80 bansweredInRound\n      ) = maticPriceFeed.latestRoundData();\n      return uint(price * bprice / (10**18));\n  }\n\n  //Comment below lines for testnet: From here:-\n  // function getLatestPriceLink() public view returns (uint) {\n  //     (\n  //         uint80 roundID, \n  //         int price,\n  //         uint startedAt,\n  //         uint timeStamp,\n  //         uint80 answeredInRound\n  //     ) = linkPriceFeed.latestRoundData();\n  //     return uint(price);\n  // }\n\n  // function getLatestPriceBnb() public view returns (uint) {\n  //     (\n  //         uint80 roundID, \n  //         int price,\n  //         uint startedAt,\n  //         uint timeStamp,\n  //         uint80 answeredInRound\n  //     ) = bnbPriceFeed.latestRoundData();\n  //     return uint(price);\n  // }\n\n  // function getLatestPriceXrp() public view returns (uint) {\n  //     (\n  //         uint80 roundID, \n  //         int price,\n  //         uint startedAt,\n  //         uint timeStamp,\n  //         uint80 answeredInRound\n  //     ) = xrpPriceFeed.latestRoundData();\n  //     return uint(price);\n  // }\n\n  // function getLatestPriceAda() public view returns (uint) {\n  //     (\n  //         uint80 roundID, \n  //         int price,\n  //         uint startedAt,\n  //         uint timeStamp,\n  //         uint80 answeredInRound\n  //     ) = adaPriceFeed.latestRoundData();\n  //     return uint(price);\n  // }\n\n  // function getLatestPriceSol() public view returns (uint) {\n  //     (\n  //         uint80 roundID, \n  //         int price,\n  //         uint startedAt,\n  //         uint timeStamp,\n  //         uint80 answeredInRound\n  //     ) = solPriceFeed.latestRoundData();\n  //     return uint(price);\n  // }\n\n  // function getLatestPriceLuna() public view returns (uint) {\n  //     (\n  //         uint80 roundID, \n  //         int price,\n  //         uint startedAt,\n  //         uint timeStamp,\n  //         uint80 answeredInRound\n  //     ) = lunaPriceFeed.latestRoundData();\n  //     return uint(price);\n  // }\n\n  // function getLatestPriceDot() public view returns (uint) {\n  //     (\n  //         uint80 roundID, \n  //         int price,\n  //         uint startedAt,\n  //         uint timeStamp,\n  //         uint80 answeredInRound\n  //     ) = dotPriceFeed.latestRoundData();\n  //     return uint(price);\n  // }\n\n  // function getLatestPriceDoge() public view returns (uint) {\n  //     (\n  //         uint80 roundID, \n  //         int price,\n  //         uint startedAt,\n  //         uint timeStamp,\n  //         uint80 answeredInRound\n  //     ) = dogePriceFeed.latestRoundData();\n  //     return uint(price);\n  // }\n\n  // function getLatestPriceLtc() public view returns (uint) {\n  //     (\n  //         uint80 roundID, \n  //         int price,\n  //         uint startedAt,\n  //         uint timeStamp,\n  //         uint80 answeredInRound\n  //     ) = ltcPriceFeed.latestRoundData();\n  //     return uint(price);\n  // }\n\n  // function getLatestPriceTrx() public view returns (uint) {\n  //     (\n  //         uint80 roundID, \n  //         int price,\n  //         uint startedAt,\n  //         uint timeStamp,\n  //         uint80 answeredInRound\n  //     ) = trxPriceFeed.latestRoundData();\n  //     return uint(price);\n  // }\n\n  // function getLatestPriceBch() public view returns (uint) {\n  //     (\n  //         uint80 roundID, \n  //         int price,\n  //         uint startedAt,\n  //         uint timeStamp,\n  //         uint80 answeredInRound\n  //     ) = bchPriceFeed.latestRoundData();\n  //     return uint(price);\n  // }\n\n  // function getLatestPriceAlgo() public view returns (uint) {\n  //     (\n  //         uint80 roundID, \n  //         int price,\n  //         uint startedAt,\n  //         uint timeStamp,\n  //         uint80 answeredInRound\n  //     ) = algoPriceFeed.latestRoundData();\n  //     return uint(price);\n  // }\n\n  // function getLatestPriceXlm() public view returns (uint) {\n  //     (\n  //         uint80 roundID, \n  //         int price,\n  //         uint startedAt,\n  //         uint timeStamp,\n  //         uint80 answeredInRound\n  //     ) = xlmPriceFeed.latestRoundData();\n  //     return uint(price);\n  // }\n\n  // function getLatestPriceZec() public view returns (uint) {\n  //     (\n  //         uint80 roundID, \n  //         int price,\n  //         uint startedAt,\n  //         uint timeStamp,\n  //         uint80 answeredInRound\n  //     ) = zecPriceFeed.latestRoundData();\n  //     return uint(price);\n  // }\n\n  // function getLatestPriceDash() public view returns (uint) {\n  //     (\n  //         uint80 roundID, \n  //         int price,\n  //         uint startedAt,\n  //         uint timeStamp,\n  //         uint80 answeredInRound\n  //     ) = dashPriceFeed.latestRoundData();\n  //     return uint(price);\n  // }\n\n  //Until here:-\n\n\n  function getLatestPrice(string memory input) internal view returns (uint cryptoPrice) {\n    if((keccak256(abi.encodePacked(input))) == (keccak256(abi.encodePacked(\"btc\")))){\n      return getLatestPriceBtc();\n    } else if((keccak256(abi.encodePacked(input))) == (keccak256(abi.encodePacked(\"eth\")))){\n      return getLatestPriceEth();\n    } else if( (keccak256(abi.encodePacked(input))) == (keccak256(abi.encodePacked(\"matic\")))){\n      return getLatestPriceMatic();\n    } else if((keccak256(abi.encodePacked(input))) == (keccak256(abi.encodePacked(\"link\")))){\n      return getLatestPriceLink();\n    }\n\n    //Comment below lines for testnet:\n    // else if((keccak256(abi.encodePacked(input))) == (keccak256(abi.encodePacked(\"bnb\")))){\n    //   return getLatestPriceBnb();\n    // }\n    // else if((keccak256(abi.encodePacked(input))) == (keccak256(abi.encodePacked(\"xrp\")))){\n    //   return getLatestPriceXrp();\n    // }\n    // else if((keccak256(abi.encodePacked(input))) == (keccak256(abi.encodePacked(\"ada\")))){\n    //   return getLatestPriceAda();\n    // }\n    // else if((keccak256(abi.encodePacked(input))) == (keccak256(abi.encodePacked(\"sol\")))){\n    //   return getLatestPriceSol();\n    // }\n    // else if((keccak256(abi.encodePacked(input))) == (keccak256(abi.encodePacked(\"luna\")))){\n    //   return getLatestPriceLuna();\n    // }\n    // else if((keccak256(abi.encodePacked(input))) == (keccak256(abi.encodePacked(\"dot\")))){\n    //   return getLatestPriceDot();\n    // }\n    // else if((keccak256(abi.encodePacked(input))) == (keccak256(abi.encodePacked(\"doge\")))){\n    //   return getLatestPriceDoge();\n    // }\n    // else if((keccak256(abi.encodePacked(input))) == (keccak256(abi.encodePacked(\"ltc\")))){\n    //   return getLatestPriceLtc();\n    // }\n    // else if((keccak256(abi.encodePacked(input))) == (keccak256(abi.encodePacked(\"trx\")))){\n    //   return getLatestPriceTrx();\n    // }\n    // else if((keccak256(abi.encodePacked(input))) == (keccak256(abi.encodePacked(\"bch\")))){\n    //   return getLatestPriceBch();\n    // }\n    // else if((keccak256(abi.encodePacked(input))) == (keccak256(abi.encodePacked(\"algo\")))){\n    //   return getLatestPriceAlgo();\n    // }\n    // else if((keccak256(abi.encodePacked(input))) == (keccak256(abi.encodePacked(\"xlm\")))){\n    //   return getLatestPriceXlm();\n    // }\n    // else if((keccak256(abi.encodePacked(input))) == (keccak256(abi.encodePacked(\"zec\")))){\n    //   return getLatestPriceZec();\n    // }\n    // else if((keccak256(abi.encodePacked(input))) == (keccak256(abi.encodePacked(\"dash\")))){\n    //   return getLatestPriceDash();\n    // }\n\n    // Until here\n  }\n\n\n}",
  "sourcePath": "/home/arjun/projects/CD11/contracts/MindGames.sol",
  "compiler": {
    "name": "solc",
    "version": "0.8.10+commit.fc410830.Emscripten.clang"
  },
  "schemaVersion": "3.4.3",
  "updatedAt": "2022-02-16T12:45:23.092Z",
  "networkType": "ethereum",
  "devdoc": {
    "kind": "dev",
    "methods": {},
    "version": 1
  },
  "userdoc": {
    "kind": "user",
    "methods": {
      "getLatestPriceBtc()": {
        "notice": "Oracles for each price feed"
      }
    },
    "version": 1
  }
}